:020000040800F2
:10000000C0080020E9010008311F0008191E00087F
:100010002D1F0008151700080D2C00080000000017
:10002000000000000000000000000000052600089D
:1000300001190008000000000924000891270008A9
:10004000030200080302000803020008030200087C
:10005000030200080302000803020008030200086C
:10006000030200080302000803020008030200085C
:10007000030200080302000803020008030200084C
:10008000030200080302000803020008030200083C
:10009000030200080302000803020008030200082C
:1000A000030200080302000803020008030200081C
:1000B000030200080302000803020008030200080C
:1000C00003020008030200080302000803020008FC
:1000D00003020008F5270008030200084128000871
:1000E00003020008030200080302000800F002F8FF
:1000F00000F06AF80AA090E8000C82448344AAF158
:100100000107DA4501D100F05FF8AFF2090EBAE855
:100110000F0013F0010F18BFFB1A43F0010318473B
:10012000084E0000284E00000A444FF0000C10F862
:10013000013B13F0070408BF10F8014B1D1108BF65
:1001400010F8015B641E05D010F8016B641E01F805
:10015000016BF9D113F0080F1EBF10F8014BAD1C55
:100160000C1B09D16D1E58BF01F801CBFAD505E073
:1001700014F8016B01F8016B6D1EF9D59142D6D3CD
:10018000704700000023002400250026103A28BFF5
:1001900078C1FBD8520728BF30C148BF0B607047F9
:1001A000662904F06082642900F07C80002070479A
:1001B0001FB500F051FC04000020002103F012FBE9
:1001C000E0601FBD10B510BD00F042FD1146FFF705
:1001D000EFFF03F021F900F060FD03B4FFF7F2FF39
:1001E00003BC02F0A0FD0000094880470948004711
:1001F000FEE7FEE7FEE7FEE7FEE7FEE7FEE7FEE7D7
:10020000FEE7FEE704480549054A064B7047000033
:1002100095270008ED000008C0020020C00800205B
:10022000C0040020C0040020704700000FB41CB5BB
:10023000074B06AA7B4469460090059800F0CDFB69
:100240000020694600F0DCFB1CBC5DF814FB0000DC
:10025000C907000070B5044685690068C10601D56C
:10026000302600E02026C00707D070BDD4E9012168
:1002700030469047206A401C20626D1EF6D570BD46
:1002800070B5044685690078C00707D170BDD4E910
:10029000012120209047206A401C20626D1EF6D567
:1002A00070BD00002DE9F041064600241068752954
:1002B000314616A510D0AFF30080002802DA404284
:1002C00013A507E031688A0701D512A502E04907A6
:1002D00004D511A5012401E0AFF3008000210A221A
:1002E00006F1240709E0B0FBF2FCB0FBF2F302FBDD
:1002F0001C00303078541846491C0028F3D123469E
:100300002A463046BDE8F04100F0FCB8000000008D
:100310002D0000002B000000200000002DE9F05F00
:10032000894604464FF0000ADFF824B1FB44C0F8C8
:1003300020A02046E168884700287DD0252806D0E7
:10034000D4E901219047206A401C2062F1E7002592
:100350005F462046E16888472028064607DB312EA5
:1003600005D2B81910F8200C08B10543F1E7A80729
:1003700001D525F00405C4F81CA00027C4F818A076
:100380002A2E09D0304602F0C7FC38B304EB8708A8
:10039000303EC8F8186019E059F8041B204604EBF9
:1003A00087029161E1688847012F064618D1E0690C
:1003B000002820DA25F020051DE0D8F8180000EB11
:1003C000800006EB40003038C8F818002046E1688D
:1003D0008847064602F0A0FC0028EED1012F0AD083
:1003E0002E2E08D12046E16888477F1C0646022F42
:1003F00045F02005C4DBA069002803DA404245F03F
:100400000105A061E80701D025F01005A6B1A6F10D
:100410004100192802D8203645F400654A46314685
:10042000204625604D46FFF7BBFE60B1012807D08E
:10043000ED1D25F0070000E007E000F1080978E76E
:1004400005F1040975E730467AE7206ABDE8F09FB8
:10045000524B000010B5203AC0F00B80B1E81850A4
:10046000203AA0E81850B1E81850A0E81850BFF49E
:10047000F5AF5FEA027C24BFB1E81850A0E818503D
:1004800044BF18C918C0BDE810405FEA827C24BF91
:1004900051F8043B40F8043B08BF7047D20728BF1F
:1004A00031F8023B48BF11F8012B28BF20F8023B6E
:1004B00048BF00F8012B70474FF000020429C0F03C
:1004C000128010F0030C00F0A282CCF1040CBCF1FD
:1004D000020F18BF00F8012BA8BF20F8022BA1EBD8
:1004E0000C0100F094BA5FEAC17C24BF00F8012B34
:1004F00000F8012B48BF00F8012B70477047704788
:10050000704770472DE9F0470D46994692460446DC
:1005100000F124080168880604D5E06921F0100183
:10052000216000E00120A84201DD471B00E0002718
:10053000A1697A1902EB0900081AA0612078C006A7
:1005400002D42046FFF786FE002608E0D4E9012108
:100550001AF806009047206A401C761C20624E451F
:10056000F4DB2078C0060AD52046FFF773FE06E0CC
:10057000D4E9012130209047206A401C2062381EB7
:10058000A7F10107F4DC07E0D4E9012118F8050020
:100590009047206A401C2062281EA5F10105F3DC6B
:1005A0002046FFF76DFE2078000602D50220BDE848
:1005B000F0870120FBE770472DE9FF4F0C461E46F0
:1005C0004FF0FF378BB0D2E90001DDF860800A9070
:1005D0008A46C1F30A5505B93D46002108464FF049
:1005E0000000BAF1000F00F4400005DA00EB8000D3
:1005F0004FF4400101EA50004FEA9059B9F1010F60
:1006000000DDB9460A9850EA4A000ED044F6105070
:10061000A5F2FF3545432F14B8F1000F1ED07542E7
:10062000291E1EDDC9F100021CE0B8F1010F4FF0D8
:10063000000001D0302103E0F24305E02154401CCA
:10064000B042FBDB30460022002121540B99C1F857
:100650000880C1E900200FB0BDE8F08FBD1B6D1C04
:10066000DEE74A4600DA694206A800F07FFA06ABE8
:1006700093E8070003AB83E8070050460A9900F0AF
:1006800053FB8DE80700A0F500501F380090039839
:10069000002D09DD42F21F014A46084403A90390D8
:1006A000684600F0B2FD08E0A0F500504A461F3849
:1006B00003A90390684600F0BCFD8DE80700000424
:1006C000000C03D04FF0FF30410800E01046B8F1B5
:1006D000000F03D00022009215461EE0751E05D4BF
:1006E00000F0BEF9303262556D1EF9D5B3460122D5
:1006F000084302D000227F1C04E02078302801D17A
:1007000000227F1E002A099786D01DE0112D07DAEE
:1007100000F0A6F9303262556D1C50EA0102F5D1A5
:10072000084302D00098C8B10EE00021681E05E021
:10073000235C625C63542254401E491C8142F7DBF7
:10074000AB46A81B401E0990002004F80B000B9834
:10075000099AC0F80880C0E9002B7CE711264FF009
:10076000000859E72DE9F04F88460446D21D22F0D3
:10077000070191B0D1E90001CDE90A0102F0B8FA10
:1007800002460B98C00F01D02D2007E0206881079A
:1007900001D52B2002E0202101EAC000032A0990A4
:1007A00001D0072A05DB03464146204600F09EF9AA
:1007B0000BE12078800601D5E06900E00620B8F161
:1007C000650F814606D0B8F1660F18D0B8F1670FF3
:1007D00070D131E00020B9F1110F009001DB11233D
:1007E00001E009F101030AAA01A90CA8FFF7E4FE40
:1007F000DDE90C70002609F10105834647E0012080
:100800004B4600904FF000470AAA01A90CA8FFF739
:10081000D3FEDDE90DB00C995D46002610B909F153
:1008200001000D18B9EB050003D4C0F1FF3609F142
:100830000105A5EB09002BE0B9F1010F01DA4FF03A
:1008400001090020B9F1110F0090484601DD112384
:1008500000E003460AAA01A90CA8FFF7ADFEDDE9F6
:100860000C704D4600268346207800070AD4AB451D
:1008700000DA5D4601A8012D04DD411911F8011CC3
:10088000302907D04F4502DA17F1040F04DA0120AE
:1008900082460FE06D1EEEE7002F02DCED1B3E44AA
:1008A00003E0781CA84200DD7D1CB81B00F1010AA2
:1008B0004FF000472078000703D4AA4501DB4FF032
:1008C000FF3A0021B7F1004F0DF143088DF84310B6
:1008D00024D002202B23002F01DA7F422D230A216E
:1008E000021EA0F1010000DC5FB197FBF1FC97FB59
:1008F000F1F201FB1C7C17460CF1300C08F801CD1D
:10090000EEE7A8F1010003702188090501D5452112
:1009100000E06521A0F1010800F8011C09980FA969
:10092000A1EB0807FF1D00B10120411901EBEA709E
:10093000A1693844081A401EA0612078C00602D47C
:100940002046FFF787FC099828B1D4E90121904798
:10095000206A401C20622078C00622D52046FFF77E
:1009600079FC1EE0002E04DBB34502DD01A8805DAA
:1009700000E03020D4E901219047206A401C206229
:10098000761CAAF101005FEA000A0AD100F064F8BF
:10099000C0680168405CD4E901219047206A401C8E
:1009A0002062281EA5F10105DCDC07E0D4E9012165
:1009B00018F8010B9047206A401C2062381EA7F1EE
:1009C0000107F3DC2046FFF75BFC032011B043E690
:1009D00001694A1C02610878704700B58FB0CDE903
:1009E00001310021059105497944CDE903101146F3
:1009F0006846FFF793FC0FB000BD0000E5FFFFFF66
:100A00000A6802F8010B0A6070474FF0000200B557
:100A1000134694469646203922BFA0E80C50A0E821
:100A20000C50B1F12001BFF4F7AF090728BFA0E8CF
:100A30000C5048BF0CC05DF804EB890028BF40F89B
:100A4000042B08BF704748BF20F8022B11F0804FDD
:100A500018BF00F8012B7047004870477C02002047
:100A600030B5B0F10A024FEA900E71F100034EEA80
:100A7000817EB0EB0E0061EB91014FEA101E4EEA51
:100A8000017E10EB0E0041EB11114FEA102E4EEAE1
:100A9000016E10EB0E0041EB11214FEA104E4EEAB1
:100AA000014E10EB0E0041EB1141401841F10001E5
:100AB0004FEAD00040EA41704FEAD10110EB8005C7
:100AC0004FEA810444EA907444EB01046D1944EB4D
:100AD0000404521BA3414FF0000348BF0A3200D563
:100AE00030BD401C41F1000130BD00002DE9F04156
:100AF0001F46044603260168072A01F4006004DB50
:100B000008B116A505E016A503E008B115A500E09B
:100B100015A521F010002060A069C01EA0610FB1D2
:100B2000401EA0612046FFF795FB4FB1D4E901219B
:100B300038469047206A401C2062C01C206206E0B4
:100B4000206AFAE7D4E9012115F8010B9047761ED7
:100B5000F8D22046FFF794FBBDE8F0814E414E00ED
:100B60006E616E00494E4600696E66002DE9F047E1
:100B7000814616468AB0334878440DC88DE80D008A
:100B800030487844801C03AC0DC884E80D0041F661
:100B90009B300844372190FBF1F290FBF1F5A5F171
:100BA000800501FB12041B3C02D56442012000E0D9
:100BB0000020DFF890A080460027FA44AAF1BE0A80
:100BC0000DE0E00709D03246684607EB47010AEB23
:100BD000810100F02EFB8DE8070064107F1C002CC3
:100BE000EFD1184F7F44AC3F18E0E80714D007EB73
:100BF00004100DF1180A90E80E008AE80E00C06893
:100C0000F04201D198190890324606A903A800F0D5
:100C100010FB03AB83E807006D10641C002DE4D1CA
:100C200032466946B8F1000F03A802D000F0EDFA91
:100C300001E000F0FEFAC9E90001C9F808200AB095
:100C4000BDE8F08794430000004870475C02002034
:100C50007546FFF7F9FFAE4605006946534620F09A
:100C60000700854618B020B5FFF7CCFABDE8204054
:100C70004FF000064FF000074FF000084FF0000B58
:100C800021F00701AC46ACE8C009ACE8C009ACE80B
:100C9000C009ACE8C0098D4670470446AFF3008038
:100CA0002046FFF79AFA00004FF0013C50F8042B61
:100CB00051F8043B9A4221D1A2EB0C03934313EA6F
:100CC000CC1317D150F8042B51F8043B9A4215D19C
:100CD000A2EB0C03934313EACC130BD150F8042B73
:100CE00051F8043B9A4209D1A2EB0C03934313EA57
:100CF000CC13DBD04FF00000704700BFD01A01BA10
:100D0000B1FA81F101F0180122FA01F0CB40C1F1F2
:100D10002001DBB2C0B2C01A2CFA01F3D11A914300
:100D200011EAC311E6D170475FEA400C08BF91F0A9
:100D3000000F4FEA8C234FEAC12243EA51514FEA98
:100D40001C5018BF00F5F0404FEA300018BF41F0CA
:100D500000415FEA6C5C00F02980BCF1FF3F08BFF6
:100D600040F080407047130C06BF12044FF0100C87
:100D70004FF0000C130E04BF12020CF1080C130FFD
:100D800004BF12010CF1040C930F04BF92000CF18C
:100D9000020CD30F04BF52000CF1010C11464FF0AE
:100DA0000002A0F11F00A0EB0C00704711F0004FF3
:100DB00008BF704731F000413FF4D5AF0B0C06BFC0
:100DC00009044FF0100C4FF0000C0B0E04BF090289
:100DD0000CF1080C0B0F04BF09010CF1040C8B0F74
:100DE00004BF89000CF1020CCB0F04BF49000CF1C9
:100DF000010CCCF12003A0EB0C0022FA03F302FA61
:100E00000CF241EA030100F10100704720F07F4C31
:100E100080EA030023F07F47ACEB070303F57C5324
:100E200000F0004003F1FF032DE980494FEA154B24
:100E300009B44FEA144325EA0B4E24EA03480FF2A3
:100E4000042606EB132749083E785FEA320203FBCB
:100E50000667C7F5000707FB06F64FEA54374FEA67
:100E6000D64606F1020607FB066CCCF1005C4FEAA1
:100E70001C472CEA074C07FB06F40CFB06F504EBB9
:100E800015464FEA961634BF00204FF000404FEA57
:100E9000D13706FB07FC4FEA1C4C0CFB0BF7D21BAF
:100EA00003FB0CF761EB07010CFB0EF7B0EB0740FF
:100EB00072EB17420CFB08F734BFA2EB0742B2EB10
:100EC000074261EB17414FEA0C444FEA910706FBDA
:100ED00007FC4FEA1C4C0CFB0BF7B0EBC74072EB66
:100EE000573203FB0CF734BFA2EBC742B2EBC74249
:100EF00061EB57310CFB0EF7B0EBC70072EB57728A
:100F00000CFB08F734BFA2EBC702B2EBC70261EBE0
:100F10005771039F4FEA816141EA921104EBCC04BF
:100F20004FEAD1374FEA826206FB07FC42EA901291
:100F30004FEA80604FEA1C4C0CFB0BF7D21B03FB03
:100F40000CF761EB07010CFB0EF7B0EB074072EBFF
:100F500017420CFB08F734BFA2EB0742B2EB074283
:100F600061EB17414FEA8C554FEA910704EB9C2443
:100F700006FB07FC4FEA1C4C0CFB0BF7B0EBC74021
:100F800072EB573203FB0CF734BFA2EBC742B2EB54
:100F9000C74261EB57310CFB0EF7B0EBC70072EBA9
:100FA00057720CFB08F734BFA2EBC702B2EBC702C3
:100FB00061EB577115EB4C254FEA816141EA9211C3
:100FC0004FEA82624FEAD13742EA901206FB07FCF1
:100FD00044F100044FEA80604FEA1C4C0CFB0BF715
:100FE000D21B03FB0CF761EB07010CFB0EF7B0EB18
:100FF000074072EB17420CFB08F734BFA2EB074225
:10100000B2EB074261EB174115EB1C154FEA81313A
:1010100041EA92414FEA823242EA90424FEA8030FE
:101020004FEA0C7644F1000448EA03434EEA0B48C9
:101030004FF0000EB2EB080C71EB030724BF6246C1
:1010400039464EEB0E0E4FF0000B0018524149414D
:101050004BEB0B0BB2EB080C71EB03077BF1000BB6
:1010600024BF624639464EEB0E0E4FF0000B0018BF
:10107000524149414BEB0B0BB2EB080C71EB0307F0
:101080007BF1000B24BF624639464EEB0E0E51EA4F
:10109000020718BF46F0010616EB0E7655F1000266
:1010A00054F1000103D5BDE88901BDE80088BDE821
:1010B0008901BDE80048B619524141EB0101A3F195
:1010C0000103704780807F7E7D7C7B7A797877769C
:1010D00076757473727171706F6E6E6D6C6C6B6A15
:1010E0006A696868676666656464636362616160B3
:1010F000605F5F5E5E5D5D5C5C5B5B5A5A59595830
:101100005857575656555555545453535252525199
:10111000515050504F4F4F4E4E4D4D4D4C4C4C4BEF
:101120004B4B4A4A4A494949484848474747474636
:101130004646454545444444444343434342424272
:1011400042414141002B26D4770021D01CB54FEA03
:10115000370703B44FF010004FF010014FF00000BC
:101160000FBCBDE810400BF1010BBBF1010F08BF34
:101170005FEA170722BF12F1010211F101014FF0DE
:10118000004143F1000300F0004043EA00007047D3
:10119000F9D35708DAE746EA064613F1400F4FEA5B
:1011A00016461FDD13F1200FDFBF16430A4600214C
:1011B00020335B42C8D0C3F1200746EA064602FA54
:1011C00007F74FEA164646EA0706C3F1200722FA58
:1011D00003F201FA07F721FA03F14FF0000342EAA4
:1011E0000702B1E746EA020646EA06464FEA164615
:1011F00046EA0106BCBF46EA0646360C4FF000033D
:101200004FF000024FF000019EE72DE9C0489346E1
:1012100030B491E8380007C831EA400C48BF34EADE
:10122000430C03D5FFF7F2FDFFF78CFFF0BCBDE8E0
:1012300000882DE9C048934630B491E8380007C8CB
:1012400010F0804F08BF13F0804F03D100F005F875
:10125000FFF778FFF0BCBDE8008820F07F4780EA08
:10126000030023F07F4C07EB0C03A3F57C5300F045
:101270000040A3F1FE0392F0000F00F0B38095F060
:10128000000F00F077802DE901494FEA11404FEA45
:10129000144621EA004800FB06FC24EA064708FB46
:1012A00006F607FB08F800FB07F718EB06484CEBBF
:1012B000164C4FEA124B18EB07484FEA15464CEB19
:1012C000174022EA0B4E0BFB06FC25EA06470EFBF5
:1012D00006F607FB0EFE0BFB07F71EEB064E4CEB6C
:1012E000164C4FF000061EEB074E4CEB174B18EB5D
:1012F0000B0840F1000018EB0E0B58EB000840F112
:1013000000008F1A4FF000013CBFC943661B14BF99
:10131000B5EB040C00213CBFC943F61B4FEA174450
:101320004EEA8E0E27EA04454FEA1C4704FB07628B
:101330002CEA074C05FB07F70CFB05F604FB0CFC3D
:1013400016EB074642EB174216EB0C4642EB1C42EB
:101350001BEB060658EB0202414146EA9E0601D508
:10136000BDE80189B619524141EB0101A3F1010326
:10137000BDE801894FEA14454FEA114724EA0546C2
:1013800021EA074C05FB07F406FB07F70CFB06F107
:1013900005FB0CFC11EB074144EB17444FEA1247E5
:1013A00011EB0C4144EB1C4422EA074C05FB07F20D
:1013B00006FB07F70CFB06F605FB0CFC16EB0746D5
:1013C00042EB174216EB0C4642EB1C456A1854F1EF
:1013D000000148BF7047B619524141EB0101A3F12A
:1013E0000103704795F0000F37D04FEA11424FEAE2
:1013F000144721EA024624EA074C02FB07F106FBE8
:1014000007F70CFB06F402FB0CFC14EB074441EB62
:1014100017414FEA154714EB0C4441EB1C4125EAF8
:10142000074C02FB07F506FB07F70CFB06F602FB71
:101430000CFC16EB074645EB174516EB0C4645EB47
:101440001C42121951F1000148BF7047B6195241B0
:1014500041EB0101A3F1010370474FEA14454FEA44
:10146000114724EA054621EA074C05FB07F106FB74
:1014700007F70CFB06F24FF0000605FB0CFC12EB25
:10148000074241EB174112EB0C4251EB1C4148BFA4
:101490007047921841EB0101A3F10103704721B19C
:1014A000826842F00102826003E0826822F0010259
:1014B0008260704710B504461248844208D1012169
:1014C000401500F0DFFF0021601500F0DBFF17E0A2
:1014D0000D48844208D10121001500F0D3FF0021FE
:1014E000201500F0CFFF0BE00848844208D101210D
:1014F000C80300F0C7FF00214FF4004000F0C2FF16
:1015000010BD00000024014000280140003C0140C3
:10151000014600208A6802F004020AB1012000E0BE
:10152000002070470146C86C80B270470246002018
:1015300013680B400BB1012000E00020704701460A
:1015400000208A6802F008020AB1012000E00020B1
:101550007047000030B502460020002350680F4C51
:1015600020400D790C6844EA0524204350609068BF
:101570000B4C2040D1E902542C434D7944EA4504F8
:1015800020439060D06A20F470000C7C641EE4B2AA
:10159000234340EA0350D06230BD0000FFFEF0FF5D
:1015A000FDF7F1FFF0B504460D4600200021092D9E
:1015B00011DDE068A5F10A0606EB4607072606FAE4
:1015C00007F18843A5F10A0606EB460603FA06F181
:1015D0000843E0600CE0206905EB4507072606FAA2
:1015E00007F1884305EB450603FA06F1084320613D
:1015F000072A0FDA606B561E06EB86071F2606FACF
:1016000007F18843561E06EB860605FA06F10843E5
:10161000606322E00D2A0FDA206BD61F06EB8607E7
:101620001F2606FA07F18843D61F06EB860605FA41
:1016300006F10843206310E0E06AA2F10D0606EB14
:1016400086071F2606FA07F18843A2F10D0606EB6E
:10165000860605FA06F10843E062F0BD816841F0B4
:1016600008018160704721B1826842F4A002826063
:1016700003E0826822F4A00282607047816841F032
:10168000040181607047000000B587B001214FF46C
:10169000027000F0E7FE4FF4004000F0B7FE0320B8
:1016A000ADF8040000208DF8070001A9174800F0EC
:1016B00028F91748FFF7FEFE002002908DF80C0075
:1016C0008DF80D004FF4602004900020059001205B
:1016D0008DF8180002A90E48FFF73CFF01210C48C5
:1016E000FFF7DDFE0A48FFF7B9FF00BF0848FFF724
:1016F00026FF0028FAD10648FFF7C0FF00BF0448C4
:10170000FFF706FF0028FAD107B000BD000C01402A
:101710000024014000BFFEE708B50121042000F0CD
:10172000A1FE4FF48070ADF8000010208DF803008A
:1017300003208DF802006946044800F0E2F84FF4F7
:101740008071024800F0BBF908BD000000080140AC
:1017500010B500242948006820F00F0027490860D0
:101760000846006840F00300086089152348001F00
:1017700000F0A3F940F2EE2001F062FB4FF480711B
:101780001E48001F00F09BF90F2001F059FB1B4879
:10179000006820F00F00194908600846006840F012
:1017A0000800086002E0012001F04AFB4FF480715C
:1017B0001248001F00F078F920B12046611CCCB21D
:1017C000C828F0DBC82C01DB012010BD002402E09A
:1017D000012001F035FB4FF480710848001F00F034
:1017E00063F920B92046611CCCB2F028F0DBF02C64
:1017F00001DB0120E9E70020E7E7000004080140E1
:1018000070B50024002535E064101C48006820F005
:101810000F001A4908600846006840F0030008609D
:1018200089151648001F00F048F9022001F008FB56
:101830004FF480711148001F00F041F90F48006813
:1018400020F00F000D4908600846006840F00800CD
:1018500008600C2001F0F4FA4FF480710748001F73
:1018600000F022F908B144F080043C2001F0E8FACD
:10187000681CC5B2082DC7DB204670BD04080140B6
:1018800070B504461D48006820F00F001B49086031
:101890000846006840F00300086001252AE004F0D3
:1018A0000106641096B14FF480711448001F00F0D7
:1018B00004F9022001F0C4FA4FF480710F48001FB0
:1018C00000F0FDF83C2001F0BBFA11E04FF480710C
:1018D0000A48001F00F0F1F83C2001F0B1FA4FF483
:1018E00080710648001F00F0EAF8022001F0A8FA13
:1018F000681CC5B2082DD2DD70BD0000040801408F
:1019000070472DE9F0410246002500260020002303
:101910000024002791F803C00CF00F0591F803C0D4
:101920000CF0100CBCF1000F03D091F802C04CEA8F
:10193000050591F800C0BCF1000F31D014680020FB
:101940002BE04FF0010C0CFA00F3B1F800C00CEAE8
:1019500003069E4220D183004FF00F0C0CFA03F7D0
:10196000BC4305FA03FC4CEA040491F803C0BCF143
:10197000280F06D14FF0010C0CFA00FCC2F814C07D
:101980000AE091F803C0BCF1480F05D14FF0010CFB
:101990000CFA00FCC2F810C0401C0828D1D3146017
:1019A000B1F800C0BCF1FF0F34DD546800202EE018
:1019B00000F1080C4FF0010808FA0CF3B1F800C070
:1019C0000CEA03069E4221D183004FF00F0C0CFA63
:1019D00003F7BC4305FA03FC4CEA040491F803C086
:1019E000BCF1280F05D100F1080C08FA0CF8C2F878
:1019F000148091F803C0BCF1480F07D100F1080C26
:101A00004FF0010808FA0CF8C2F81080401C0828B2
:101A1000CED35460BDE8F081F0B50A46002300241F
:101A20000021002500F00046B6F1004F02D11D4E06
:101A3000F16901E01B4E7168C0F3034583B200F405
:101A40004016B6F5401F08D121F07061154E76683A
:101A500026F07066134F7E6012E000F48016B6F533
:101A6000801F06D1032606FA05F4A14341F07061F8
:101A700006E0460D360103FA06F6B14341F0706107
:101A800022B1460D360103FA06F6314300F0004656
:101A9000B6F1004F02D1034EF16101E0014E7160D9
:101AA000F0BD0000000001400246002093680B409A
:101AB0000BB1012000E000207047416170470161D7
:101AC0007047000010B5044607230122214609484B
:101AD000FFF768FD01210748FFF7C5FD00BF0221A0
:101AE0000448FFF723FD0028F9D00248FFF71AFD4C
:101AF00010BD0000002401402DE9F04107460C46CE
:101B00000025002608E03846FFF7DCFF05440520E5
:101B100001F04EF9701CC6B2A642F4DBB5FBF4F03E
:101B200080B2BDE8F08100002DE9F04F8FB00020B9
:101B30000890002408E00A210820FFF7DDFF09A92A
:101B400021F81400601CC4B20A2CF4DB002420E04D
:101B5000601C00F0FF0917E009A830F8140009A97B
:101B600031F8191088420BDD09A931F8140031F859
:101B7000191009AA22F8141009A921F8190000BFA8
:101B800009F1010000F0FF09B9F10A0FE4DB601C64
:101B9000C4B2092CDCDB002030490860022409E0D3
:101BA00009A830F814002D49096808442B49086039
:101BB000601CC4B2082CF3DB2848006802F00EFC5D
:101BC000019002F0D5FA07460022254B02F0B2F848
:101BD00005460022234B01F001FF0022224BCDE9F4
:101BE000020101F0FBFE214A214BCDE9040102F084
:101BF000A1F882461F4A204B01F0F0FECDE9060114
:101C000001F006FE0890089802F0B2FA07461B4A57
:101C10001B4B02F08FF882461A4A1B4B01F02AFE3A
:101C2000054601F0F5FD19490860002117480068D4
:101C300002F0E8FB02D20020144908601348006853
:101C400002F096FA05460022114B02F071F902D219
:101C500010480E4908600FB0BDE8F08F74010020F5
:101C60000000144000FEAF40000018400AD7A370E7
:101C70003D0A124052B81E85EB511040295C8FC2BC
:101C8000F52815C021B07268910D37406801002019
:101C900000002C400000604110B5002406211548CA
:101CA00001F078FD142001F083F813481349096806
:101CB000405CAA281DD1104910480068801D085CAE
:101CC000AB2816D100BF08E00C48006820440A4940
:101CD000085C0B490855601CC4B20C2CF4DB0848A6
:101CE00080780749497840EA01200649086000F0F9
:101CF0008FFF10BD59010020DC0100209801002059
:101D0000A4010020600100202DE9F04F89B00020DF
:101D1000069014210920FFF7EFFE0690069802F0C6
:101D20005DFB0790079802F023FA80464FF0663279
:101D30002E4B01F0FFFF06462D4A2E4B01F09AFD77
:101D4000044601F065FD0790079802F011FA044679
:101D50000022294B01F0B2FF02D2284807902CE064
:101D6000079802F005FA0446254A264B01F0E2FFE7
:101D7000CDE90201079802F0FBF904460D460798E9
:101D800002F0F6F98046204A204B01F0D3FF0646C8
:101D900022462B4601F0CEFFCDE90001DDE902230A
:101DA00001F068FD4FF06632194BCDE9040102F0F5
:101DB000F5F8824601F02CFD07900021079802F00B
:101DC00021FB01D200200790079802F0E7FA1149A1
:101DD00008800846008840F6B831884202DD08468F
:101DE0000C49088009B0BDE8F08F000066664A3FE4
:101DF00085EB51B81E85FB3F0000044000803B4549
:101E0000CDCCCCCC4C6EB6409A999999998191C021
:101E1000E600B1407001002000BFFEE710B500F001
:101E200085FF10BD70B505460C4601F0F7F8782027
:101E300001F0CAF801F01EF9284601F0C5F801F0DA
:101E400019F9204601F0C0F801F014F901F0FEF88C
:101E500070BD000038B50024002002231BA20146FB
:101E6000009000F031FA0020022319A219460090D8
:101E700000F02AFA00BF08E0E2B22107080E0023B2
:101E8000042100F02FF9601CC4B2022CF4DB002402
:101E900009E0A11CCAB22107080E0023062100F0A8
:101EA00021F9601CC4B2022CF3DB002002233A2289
:101EB00004210090202000F08BF9002002233A2218
:101EC00006210090202000F083F938BD50483A00E8
:101ED0005444533A0000000008B501210D2000F0E1
:101EE000C1FA01210F48FFF797FD4FF4E040ADF82C
:101EF000000048208DF8030069460B48FFF701FDFC
:101F00004020ADF8000010208DF8030003208DF86C
:101F1000020069460448FFF7F4FC40210248FFF73D
:101F2000CCFD08BD00023000000C014000BFFEE700
:101F3000704710B54FF4A06000F03AF810BD0000F3
:101F400070B5002100230F22C47804B3154C246817
:101F500004F4E064C4F5E064210AC1F10403CA405A
:101F6000447804FA03F184781440214309010E4CAB
:101F70000678A155047804F01F050124AC400578CB
:101F80006D11AD0005F1E025C5F8004109E00478C8
:101F900004F01F050124AC40044D0678761145F885
:101FA000264070BD0CED00E000E400E080E100E0C0
:101FB00002490143024A1160704700000000FA051F
:101FC0000CED00E010B5002000F001F810BD70B578
:101FD0000646002415E004F1B001C8B200F07AFE14
:101FE000002000F077FE102000F074FE002504E0D1
:101FF000304600F076FE681CC5B2802DF8DB601C10
:10200000C4B2082CE7DB70BD10B5642000F0D0FE30
:10201000AE2000F05FFE202000F05CFE102000F0FB
:1020200059FEB02000F056FEC82000F053FE0020FC
:1020300000F050FE102000F04DFE402000F04AFE5F
:10204000812000F047FEFF2000F044FEA12000F0B8
:1020500041FEA62000F03EFEA82000F03BFE3F20FF
:1020600000F038FEA42000F035FED32000F032FE50
:10207000002000F02FFED52000F02CFEF02000F014
:1020800029FED92000F026FE222000F023FEDA20CF
:1020900000F020FE122000F01DFEDB2000F01AFEF2
:1020A000202000F017FE8D2000F014FE142000F018
:1020B00011FEAF2000F00EFE10BD70B504460D46B7
:1020C00005F1B001C8B200F005FE102141EA14107C
:1020D00000F000FE04F00F0141F0010000F0FAFDF5
:1020E00070BD00002DE9F04781460F4690461E4620
:1020F00000254FEA481439464846FFF7DEFF00BF87
:102100000FE0012E06D11549095DC943C8B200F0A0
:10211000E8FD03E01149085D00F0E3FD641C681C64
:10212000C5B2102DEDDB781CC1B24846FFF7C5FFE4
:1021300000250FE0012E06D10849095DC943C8B248
:1021400000F0CFFD03E00549085D00F0CAFD641C06
:10215000681CC5B2102DEDDBBDE8F087140000202F
:1021600070B586B006460D460024182212A16846B6
:10217000FEF770F929463046FFF79FFF00BF05E0E4
:102180001DF8040000F0ADFD601CC4B20C2CF7DBA0
:10219000681CC1B23046FFF790FF002407E004F14D
:1021A0000C011DF8010000F09CFD601CC4B20C2C59
:1021B000F5DB06B070BD0000102810C02010101014
:1021C0002070000000000007081010101008040024
:1021D0002DE9F04707460E4691469A46DDF82080E5
:1021E00000250024A9F12000C5B2BAF1020F40D1A8
:1021F000782F02DD0027701CC6B231463846FFF743
:102200005CFF002413E0B8F1010F08D104EB0511C5
:102210002B4A515CC943C8B200F063FD05E004EBF2
:102220000511274A505C00F05CFD601CC4B2082C0C
:10223000E9DB701CC1B23846FFF73FFF002415E010
:10224000B8F1010F09D104EB051108311C4A515CAA
:10225000C943C8B200F045FD06E004EB05110831A2
:10226000174A505C00F03DFD601CC4B2082CE7DB4F
:1022700024E07E2F02DD0027701CC6B231463846AE
:10228000FFF71BFF002417E0B8F1010F0AD105EB9F
:1022900045010C4A02EB4101095DC943C8B200F097
:1022A00020FD07E005EB4501064A02EB4101085D10
:1022B00000F017FD601CC4B2062CE5DBBDE8F0871A
:1022C000924800086A4600082DE9F05F07468946F3
:1022D00090469B46DDF828A0002500240026BBF18F
:1022E000010F03D0BBF1020F34D134E02EE018F817
:1022F00006002038C5B27E2F04DD002709F1010059
:1023000000F0FF0949463846FFF7D7FE002417E0E2
:10231000BAF1010F0AD105EB4501394A02EB41013F
:10232000095DC943C8B200F0DCFC07E005EB4501DC
:10233000334A02EB4101085D00F0D3FC601CC4B2DB
:10234000062CE5DBB81DC7B2701CC6B218F8060033
:102350000028CCD151E04BE018F806002038C5B277
:10236000782F04DD002709F1010000F0FF0949463C
:102370003846FFF7A2FE002413E0BAF1010F08D19E
:1023800004EB05111F4A515CC943C8B200F0A9FC17
:1023900005E004EB05111B4A505C00F0A2FC601C38
:1023A000C4B2082CE9DB09F10100C1B23846FFF7DD
:1023B00084FE002415E0BAF1010F09D104EB0511E8
:1023C0000831104A515CC943C8B200F08AFC06E0EB
:1023D00004EB051108310B4A505C00F082FC601CD4
:1023E000C4B2082CE7DB07F10800C7B2701CC6B204
:1023F00018F806000028AFD100BF00BFBDE8F09F6D
:102400006A46000892480008704700000146002014
:10241000034A506820F44040084350607047000071
:102420000010024029B1064AD2690243044BDA6126
:1024300004E0034AD2698243014BDA61704700002D
:102440000010024029B1064A12690243044B1A6186
:1024500004E0034A12698243014B1A61704700008D
:102460000010024029B1064A92690243044B9A6166
:1024700004E0034A92698243014B9A61704700006D
:102480000010024029B1064AD2680243044BDA60C8
:1024900004E0034AD2688243014BDA6070470000CF
:1024A0000010024030B500210022002400232D4DF1
:1024B0006D6805F00C0121B1042905D0082923D14C
:1024C00005E0294D056022E0274D05601FE0254D00
:1024D0006D6805F47012234D6D6805F48034022593
:1024E00005EB92421CB9214D554305600BE01D4D93
:1024F0006D6805F400351DB11C4D5543056002E0C3
:10250000194D5543056002E0174D056000BF00BF3F
:10251000144D6D6805F0F0010909154D6B5C0568F7
:10252000DD4045600F4D6D6805F4E061090A104D0E
:102530006B5C4568DD4085600A4D6D6805F460514F
:10254000C90A0B4D6B5C4568DD40C560054D6D6883
:1025500005F44041890B074D6B5CC568B5FBF3F58D
:10256000056130BD0010024000127A0000093D00F4
:1025700000000020100000202DE9F05F4FF0000A5D
:10258000D346FFF7E5F8CC20FFF77AF94420FFF7B0
:1025900077F9FFF7DDF8CC20FFF772F9BE20FFF7DF
:1025A0006FF9FFF72DF98146FFF72AF9044600BFBE
:1025B00049EA04200FFA80FA504601F067FB07460B
:1025C0000022054B01F0B6FB054601F021F98346D8
:1025D0005846BDE8F09F00000000B03F30B503460C
:1025E0000C461546002207E0184600F008F824F8CB
:1025F00012009B1C501C82B2AA42F5DB30BD014682
:1026000008887047704710B500F002F810BD000050
:102610000CB50020019000903348006840F48030F1
:102620003149086000BF3048006800F40030009075
:102630000198401C0190009818B90198B0F5A06F5E
:10264000F1D12948006800F4003010B10120009059
:1026500001E0002000900098012843D12348006841
:1026600040F01000214908600846006820F003008F
:1026700008600846006840F0020008601A48406898
:10268000194948600846406848600846406840F478
:10269000806048600846406820F47C104860084626
:1026A000406840F4E81048600846006840F08070D8
:1026B000086000BF0C48006800F000700028F9D0E6
:1026C0000948406820F00300074948600846406810
:1026D00040F00200486000BF0348406800F00C0072
:1026E0000828F9D10CBD0000001002400020024073
:1026F00010B50446012023490883042C08D14FF06B
:10270000E020006940F004004FF0E021086107E09C
:102710004FF0E020006920F004004FF0E021086154
:1027200019480068174908601748001D006848608C
:10273000154808300068886006220C311348FFF7FE
:102740004DFF1048C0890F49898940EA01400D4971
:102750000968884214D10B48418A008A41EA004046
:102760000849496888420BD10648C18A808A41EAF3
:10277000004004498968884202D100200149088349
:1027800010BD0000C0010020E8F7FF1F00B00008E6
:102790007047000010B51348006840F0010011496F
:1027A000086008464068104908400E4948600846DD
:1027B00000680E4908400B4908600846006820F48C
:1027C000802008600846406820F4FE0048604FF40E
:1027D0001F008860FFF717FF4FF000600449086092
:1027E00010BD0000001002400000FFF8FFFFF6FEE1
:1027F00008ED00E010B540F225510E4800F037F921
:1028000090B10D480068302802D300200A490860C2
:10281000084800F0E7F9C1B2074802680068401CA8
:10282000054B18600548815440F22551014800F0DD
:10283000A8F810BD0038014098010020DC010020FC
:1028400010B540F22551134800F011F990B112482B
:102850000068502802D300200F4908600D4800F09E
:10286000C1F9C1B20C4802680068401C0A4B1860EC
:102870000A4881540821074800F0ECF8012803D1E8
:102880000821044800F074F840F22551014800F096
:1028900078F810BD00480040A00100200C02002084
:1028A00010B586B0044601210820FFF7DBFD0121A9
:1028B0008804FFF7B7FD4FF40060ADF80000042076
:1028C0008DF8030069462048FFF71BF84FF480603D
:1028D000ADF8000003208DF8020018208DF80300E9
:1028E00069461948FFF70DF802940020ADF80C0076
:1028F000ADF80E00ADF81000ADF814000C20ADF8E6
:10290000120002A9114800F001F9012240F22551FC
:102910000E4800F0D6F801210C4800F041F84FF4C1
:10292000A060FFF745FB27208DF8040001208DF8FB
:10293000050002208DF8060001208DF8070001A88F
:10294000FFF7FEFA06B010BD000C01400048004041
:1029500010B504462146054800F049F900BF802122
:10296000024800F077F80028F9D010BD0048004078
:1029700001F40072B2F5007F00D100BFCA430280AB
:10298000704710B50022002340F66A14A14200D11E
:1029900000BF0A1201249440A3B2DC43048010BD9E
:1029A00021B1828942F40052828104E082894DF68D
:1029B000FF731A408281704710B504462048844254
:1029C00009D101218803FFF75DFD00214FF480400C
:1029D000FFF758FD32E01B48844209D10121480429
:1029E000FFF730FD00214FF40030FFF72BFD25E00D
:1029F0001548844209D101218804FFF723FD0021F5
:102A00004FF48020FFF71EFD18E01048844209D1E2
:102A10000121C804FFF716FD00214FF40020FFF745
:102A200011FD0BE00A48844208D101210805FFF797
:102A300009FD00214FF48010FFF704FD10BD0000D8
:102A4000003801400044004000480040004C004075
:102A50000050004002460020B1F5007F00D100BFC9
:102A600013880B400BB1012000E00020704770B5C7
:102A70000246002400230025002040F66A16B142D9
:102A800000D100BFC1F3421501F01F03012606FA71
:102A900003F3012D02D19689334006E0022D02D1C5
:102AA000168A334001E0968A33400C12012606FA5A
:102AB00004F41688344013B10CB1012000E000206A
:102AC00070BDF0B50346002400260025002040F626
:102AD0006A17B94200D100BF1846C1F3421401F091
:102AE0001F06012707FA06F5012C01D10C3004E07E
:102AF000022C01D1103000E014301AB107682F43C6
:102B0000076002E00768AF430760F0BD2DE9F047BA
:102B100086B005460E460024A24600BFA146002707
:102B2000B08900B100BF2F462C8A4CF6FF700440DC
:102B3000F08804432C82AC894EF6F3100440B08830
:102B400031890843718908430443AC81AC8A4FF64C
:102B5000FF400440B0890443AC8201A8FFF7A2FC07
:102B60001F48874202D1DDF810A001E0DDF80CA07B
:102B7000A88900F4004040B10AEBCA0000EB0A103B
:102B800031684900B0FBF1F807E00AEBCA0000EB3E
:102B90000A1031688900B0FBF1F86420B8FBF0F04E
:102BA00004012009642101FB1089A88900F4004078
:102BB00040B1322000EBC900B0FBF1F000F007009B
:102BC000044308E0322000EB09106421B0FBF1F06F
:102BD00000F00F0004432C8106B0BDE8F087000030
:102BE0000038014001468888C0F308007047C1F3EF
:102BF00008028280704710B5044603E02078FFF792
:102C0000A7FE641C20780028F8D110BD00BFFEE7A5
:102C100010B530210348FDF74FFC00200249086041
:102C200010BD0000DC0100209801002030B58DB0FF
:102C30001748006801F09CFA044622460B4615A18D
:102C40006846FDF7F3FA6846FFF7D5FF144815A16B
:102C500002686846FDF7EAFA6846FFF7CCFF1448B9
:102C6000B0F9002013A16846FDF7E0FA6846FFF7C7
:102C7000C2FF1348028813A16846FDF7D7FA6846D9
:102C8000FFF7B9FF05A0FFF7B6FF0DB030BD00009C
:102C90006801002050483A25352E32660D0A0000A2
:102CA000600100205444533A25640D0A00000000DE
:102CB00054010020CEC2B6C83A2564A1E60D0A0030
:102CC00070010020D7C7B6C83A25644E54550D0A86
:102CD0000000000010B5044621460020FFF7A2F8CE
:102CE00010BD10B5044621464020FFF79BF810BDEB
:102CF000490050EAC12018BF04204A0D18BF40F017
:102D0000010040F2FF72B2EB515F08BF40F00200D9
:102D1000012808BF0520704730380A2801D2012059
:102D2000704700207047014600BF704708B5012179
:102D30001020FFF797FB03208DF8020014208DF878
:102D400003004FF48040ADF8000069460648FEF7E6
:102D5000D8FD4FF40050ADF8000069460248FEF778
:102D6000D0FD00F073F908BD0010014010B56FF000
:102D70000400FFF7BDFC0A4800680A49B0FBF1F007
:102D8000094908700846007800EB4001C1EBC0100B
:102D90004FF6FF7101EAC0000449088010BD000031
:102DA0007801002000127A008C0100208E010020A2
:102DB00001461F4A12884A434FF0E0235A6100221D
:102DC0009A611A46126942F001021A6100BF4FF07F
:102DD000E0221069174A128B92B1174A1268521CEE
:102DE000154B1A601A4612684AF6C8739A4207D9F8
:102DF0000022114B1A60114A1268521C0F4B1A60C4
:102E000000F001021AB100F48032002ADFD00B4A30
:102E10001268B2F5966FDAD84FF0E022126922F00C
:102E200001024FF0E0231A6100229A61704700000E
:102E30008E010020C001002090010020940100209C
:102E40000146114A12784A434FF0E0235A610022AA
:102E50009A611A46126942F001021A6100BF4FF0EE
:102E6000E022106900F001021AB100F48032002A59
:102E7000F5D04FF0E022126922F001024FF0E0237A
:102E80001A6100229A6170478C010020F8B5404811
:102E90000078012803D03E480078022837D13D4809
:102EA000008801F09BFA07463B4901F099F9044676
:102EB00001F05EF905462A460B4638A13948FDF770
:102EC000B5F9334800780223364A042100902820BF
:102ED000FFF7FAF93448008801F080FA07462E49D6
:102EE00001F07EF9044601F043F905462A460B46F7
:102EF0002AA12C48FDF79AF925480078401EC0B257
:102F00000223284A062100902820FFF7DDF92048F7
:102F10000078032810D1254825A102682148FDF733
:102F200085F91B480078801EC0B202231D4A042187
:102F300000902820FFF7C8F915480078042810D120
:102F40001D4802781DA11748FDF770F91048007858
:102F5000C01EC0B20223134A042100902820FFF7AC
:102F6000B3F90B480078052810D11648028810A143
:102F70000C48FDF75BF906480078001FC0B2022339
:102F8000084A042100902820FFF79EF9F8BD0000B0
:102F9000580100206C0100200000C84225352E3267
:102FA00066000000B00100206E01002064010020D6
:102FB00025303464000000005601002025303264C2
:102FC000000000007201002070B50446002520E0DA
:102FD00004F0800020B14FF400500F49086103E075
:102FE0004FF400500C4948610220FFF729FF4FF4CD
:102FF0008040094908610220FFF722FF4FF480401A
:10300000054948616006040E0220FFF719FF681C9D
:10301000C5B2082DDCDB70BD0010014010B54FF4C7
:10302000005009490861400008610420FFF708FFCB
:103030004FF40050044948610420FFF701FF4FF4AA
:1030400080400149486110BD0010014010B54FF4A7
:10305000005007494861400008610420FFF7F0FE76
:103060004FF40050024908610420FFF7E9FE10BD4B
:103070000010014010B54FF40050104908610120C4
:10308000FFF7DEFE4FF480400C4908610120FFF796
:10309000D7FE07E0601CC4B2FA2C03DDFFF7D6FFB1
:1030A000012010BD0548806800F400500028F1D1CF
:1030B0004FF48040014948610020F2E700100140D0
:1030C00038B50024C3480068002874D11420FFF7E5
:1030D0006FFEC04800680028F7D100BFBD480068F7
:1030E0000028FBD00020BB4968310860BA4800784E
:1030F000401CB949087008460078012846D1FEF7FF
:1031000061FF00240CE004F10801CAB2202101EBA8
:103110000411C8B200231946FEF7E4FF601CC4B2D4
:10312000022CF0DB00200223ACA2014600903E20DE
:10313000FFF7CAF8002409E0211DCAB22107080ED2
:1031400000230421FEF7CEFF601CC4B2022CF3DB87
:10315000002409E0A11DCAB22107080E00230621A0
:10316000FEF7C0FF601CC4B2022CF3DB0020022378
:103170003A22042100902020FFF72AF800200223A1
:103180003A22062100902020FFF722F8924800788A
:1031900003282CD10020022391A2014600903E205A
:1031A000FFF792F8002002238FA204210090FFF77E
:1031B0008BF800240AE062E0A11DCAB22107080EC4
:1031C00000230421FEF78EFF601CC4B2022CF3DB47
:1031D000002002233A22042100902020FEF7F8FF6D
:1031E0000020022380A206210090FFF76DF87A48A4
:1031F000007804281AD100240AE0E2B2402101EB51
:103200000411C8B200231946FEF76CFF601CC4B25B
:10321000022CF2DB0020022378A204210090382047
:10322000FFF752F804213820FEF79AFF6A48007829
:10323000052817D100240BE0A11CCAB2402101EBE4
:103240000411C8B200231946FEF74CFF601CC4B23B
:10325000022CF1DB0020022369A204210090482007
:10326000FFF732F85C480078062806DB00205A4950
:103270000870FEF7A7FEFEF7EDFDFFF707FE5548C5
:10328000001D0068002851D16420FFF791FD5148CE
:10329000001D0068002849D14F48007801280BD153
:1032A0005848008858490988401A0A2804DD5648B9
:1032B00000880A305449088047480078022809D11C
:1032C00050480088B0F5AF6F04DA4E4800880A30E5
:1032D0004C49088040480078032809D14B480068D1
:1032E000B0F5FA6F04D2494800680A3047490860CF
:1032F00039480078042808D145480078632804DA62
:1033000043480078401C424908703348007805283B
:103310000AD14048008840F6B831884204DA3D4876
:1033200000880A303B490880FFF7B0FD2948083083
:103330000068E8BB6420FFF73BFD264808300068C2
:10334000B0BB25480078012808D12F4800880A28FA
:1033500004DB2D4800880A382B4908801E48007875
:1033600002280BD12748008827490988401A0A28D3
:1033700004DD244800880A3822490880164800786D
:10338000032808D1214800680A2804D31F48006890
:103390000A381E4908601048007804280AD11C48E1
:1033A0000078002806DD1A480078401E184900E021
:1033B0000FE0087008480078052808D115480088F3
:1033C0000A2804DB134800880A3812490880FFF7EE
:1033D0005DFD38BD30812142580100202050480059
:1033E00020544453000000002020202020202020D2
:1033F000202020202020202000000000202000008D
:103400004E5455006E0100206C0100206401002024
:10341000560100207201002008B54FF496754FF058
:103420000A080024FFF7A2FCFEF783FD2846FFF7F9
:10343000BFFCFEF7F3FCFEF727F9FEF7E5FDFEF70C
:10344000C1FDFEF707FDFEF747FDFEF765F9FEF744
:103450007FF9680100F040F96801FFF721FA01E106
:10346000FFF72EFE681C85B2B5F5967F7DDB7E48A2
:103470000078002879D100250CB9012000E0002057
:103480000446FEF751FB7948008800F0A7FF064686
:1034900077497848006800F0E9FF0746314600F0B8
:1034A000B1FF0ED97448008800F098FF06467049B5
:1034B0007048006800F0DAFF0746314601F0A2F8D4
:1034C00009D844B1002002236CA2014600902020BC
:1034D000FEF7FAFE12E06748006800F049FE064673
:1034E00032460B4667A16948FCF7A0FE0020022384
:1034F000664A014600902020FEF7E6FEFEF7CCFB70
:103500006348006863490968884209D344B10020D0
:10351000022361A2194600902820FEF7D5FE0DE097
:103520005B485FA102685948FCF780FE0020022337
:10353000564A194600902820FEF7C6FEFFF71CF8F1
:10354000064600F00FFF00B2574908800846B0F960
:1035500000005649097888420BDB54B10020022351
:103560004DA204210090282000E078E0FEF7ACFE98
:1035700012E04D48B0F900204DA14448FCF756FE3A
:1035800000200223414A042100902820FEF79CFEDF
:1035900004213820FEF7E4FDFEF7B6FB464800881C
:1035A00046490988884209DB44B10020022344A22D
:1035B000062100902820FEF787FE0DE03E48028895
:1035C00041A13248FCF732FE002002232F4A062197
:1035D00000902820FEF778FE2448008800F0FEFEC8
:1035E000064623492348006800F040FF074631465D
:1035F00000F008FF21D92048008800F0EFFE0646C1
:103600001B491C48006800F031FF0746314600F0B6
:10361000F9FF12D91E4800681E49096888420CD279
:103620002148B0F9000021490978884205DA22488A
:10363000008822490988884203DB01202549086067
:1036400002E000202349086008F101001FFA80F819
:10365000B8F1020F03DB4FF00008FFF7E7FA012093
:10366000FFF7A6FBFCE60000580100206C010020DB
:103670000000C842680100206E01002020202020A8
:103680002000000025352E3266200000B001002009
:1036900060010020640100202020202000000000A4
:1036A0002564202020000000540100205601002045
:1036B00025303264000000007001002072010020FB
:1036C000202020202020200025644E54552020203A
:1036D000000000009881214210B586B00446012107
:1036E00044F20500FEF7BEFE2848FFF765F94FF4E7
:1036F0000070ADF8140003208DF8160018208DF826
:10370000170005A92248FEF7FCF84FF48060ADF8D9
:10371000140004208DF8170005A91D48FEF7F1F8E4
:1037200025208DF8000003208DF8010002208DF87F
:10373000020001208DF803006846FEF701FC0194A9
:103740000020ADF80800ADF80A00ADF80C00ADF8A7
:1037500010000C20ADF80E0001A90C48FFF7D6F9B7
:1037600001A90A48FFF7D2F9012240F22551074882
:10377000FFF7A7F9002240F224410448FFF7A1F91E
:1037800001210248FFF70CF906B010BD00380140D6
:1037900000080140FF2912D00BE000BF104A128838
:1037A00002F04002002AF9D002780D4B1B1D1A804E
:1037B000401C0A00A1F10103D9B2EED10FE00BE0E9
:1037C00000BF074A128802F04002002AF9D00278AE
:1037D000034B1B1D1A80401C0278002AF0D1704751
:1037E0000038014010B500290AD00878002807D019
:1037F00005487844FDF758FA002801D0002010BD94
:103800000248784410BD0000561700004E17000013
:1038100021F00042A2F16052B2F5801F01F0004396
:1038200028BFD2F17F6C0BD95FEA001C43EAC202C9
:1038300042EB507018BF704728BF20F0010070475E
:10384000B2F5801FBCBF184670474FEA410C1CF50B
:10385000001F02D2084600F0D0BE70B500F014FB85
:1038600000000089FFF7F6BF4FF00040A0F5800090
:103870007047000010B591EA030F48BF83F0004382
:1038800000F19483841A71EB030C05D2121943EBF7
:103890000C03001B61EB0C01DFF824E14FEA11542B
:1038A000A4EB135C1EEA430F18BF9EEA445F73D07B
:1038B00023EA0E03DCF1200E21EA045143F48013C5
:1038C00032D322FA0CFE10EB0E0023FA0CFE41EB71
:1038D0000E01CCF1200E03FA0EFE10EB0E0051F19A
:1038E0000001B1F5801FCCF1200E32D201EB045162
:1038F00012FA0EF2BDE8104058BF7047401C38BFA6
:103900005FEA420218BF7047002814BF20F0010090
:1039100041F100014FEA410313F5001F38BF704722
:10392000A1F1C04100F0FEBA012A43EB0302ACF161
:10393000200CDCF11F0E32BF4FF0000E23FA0CF307
:1039400010EB030041EB0451B4EB115FD0D0A1EBBD
:10395000045101F5801149085FEA300001EB045180
:103960000ED350F1000038BF12FA0EFE08D1BDE8A8
:103970001040C9E7401C38BF5FEA4202CAD1C3E722
:10398000BDE810404FEA410313F5001F38BF7047F0
:10399000A1F1C04100F0C6BA9EEA445F08D011EA26
:1039A0005E0FBDE8104004BF01F0004100207047E9
:1039B000BDE8104070B500F067FA00BF64FBBE3E82
:1039C0000000E0FF491058BFC1F140415B1058BFF3
:1039D000C3F140438B42EFF3008070472DE9C041B3
:1039E00030B4DFF8A0C23CEA111418BF3CEA13144B
:1039F00000F0EC8081EA03051CEA111444EAD57456
:103A000018BF1CEA131500F0C780A4EB05044FF0A3
:103A1000004545EAC12145EAC32341EA505143EA42
:103A2000525304F17F74994204F500344FEAC020E8
:103A30004FEAC22208BF904200F09C804FEA136513
:103A40000FF24016765D4FEA134506FB05F7C7F106
:103A5000807706FB07F74FEAD737A7FB0368764264
:103A6000C8F58038A7FB06CE38BFA8F1010807FBD0
:103A700008E64FF0000EA6FB028CE6FB03CEDCF15D
:103A8000000CCEF1004E38BFAEF1010EA6FB0C5873
:103A90004FF000074FF00005E6FB0E87A1FB08C6BC
:103AA000A0FB07CE16EB0E0645F10005E1FB07650E
:103AB00015F1E04E7EBFA4F580345FEA46066D4105
:103AC00016F1800745F100054FEA17274FEA066611
:103AD00047EA0567A6F1DE46B6F1805F4FEA152595
:103AE0001FD9384624F0010C05EBC471BCF1FE6F00
:103AF00001EB0C1102D8F0BCBDE8008124425CBF90
:103B000001F5801E9EEAC47F02D4F0BCBDE80081AE
:103B1000244238D4F0BCA1F1C041BDE8004100F01E
:103B200001BA4FEAD22242EA43524FEAD323A7FB1B
:103B300002864FEAD02040EA415007FB03661EEAA6
:103B40000E0F4FEAD12105FB026658BFA6EB0056C7
:103B5000B6EB00564FEA520E4EEAC37E18EB0E0E3D
:103B600056EB530EBDD518EB02085E417F1C55F194
:103B70000005B6E74FF480154FF000074FF0000640
:103B80004FF00008ADE7F0BC4FF0000001F1C0417C
:103B900001F00041BDE8008111EA0C1F0CEA131589
:103BA00000D00CE013EA0C1F00F025804FF000005D
:103BB000F0BC81EA030101F00041BDE80081F0BCE6
:103BC000BDE8004181EA030100F0ACB9F0BCBDE8FA
:103BD000004170B500F058F9097EFC3E00F007B8CE
:103BE00081EA03014FF0000001F00041704781EAD3
:103BF000030100F097B9F0BCBDE800414FF00000B0
:103C000021497047FFFDFBF9F7F5F4F2F0EEEDEB1B
:103C1000E9E8E6E4E3E1E0DEDDDBDAD8D7D5D4D3CA
:103C2000D1D0CFCDCCCBCAC8C7C6C5C4C2C1C0BF16
:103C3000BEBDBCBBBAB9B8B7B6B5B4B3B2B1B0AF1C
:103C4000AEADACABAAA9A8A8A7A6A5A4A3A3A2A100
:103C5000A09F9F9E9D9C9C9B9A99999897979695BB
:103C600095949393929191908F8F8E8E8D8C8C8B57
:103C70008B8A8989888887878685858484838382DF
:103C8000828181800000FF070000F87F10F0004271
:103C900048BF4042B0FA80F310FA03F10AD0C3F1F2
:103CA0001D0303F580634FEA415002EB035202EB20
:103CB000D12170474FF000007047000051EA030C1B
:103CC00017D41CF5801F58BFBCF5801F00F106807B
:103CD000994218BF704708BF9042704707D711F547
:103CE000801F58BF13F5801F19D49942704789422D
:103CF00070471CF5801F08D5BCF5801FF7D58B4297
:103D000018BF704708BF824270474FF4001C1CEB7D
:103D1000410F38BF1CEB430F01D28B42704770B587
:103D200000F0B2F8922449004FF000514FF0805358
:103D3000FFF748BEDFF848C170B51CEA111E1EBF70
:103D40001CEA13159EEA0C0F95EA0C0F00F06F8029
:103D500081EA030423EA4C134EEAD47E21EA4C1193
:103D600041F4801143F48013AE44A1FB024CA0FB4C
:103D70000365AEF17F7E361955EB0C05A1FB034CB4
:103D80004CF10003A0FB021C16EB0C06654153F13D
:103D90000003094218BF46F0010613F4007F0BD15F
:103DA0004FEA03314FEA0530340341EA155140EA46
:103DB00016506FF003020AE04FEAC3214FEAC52014
:103DC000F40241EA555140EA56506FF0020202EB0C
:103DD0002E4201EB025585EACE710AD05FEA440C0F
:103DE00018BF24F0004450F1000041F1000120EA26
:103DF000D47040F2FE7C624500D270BDA84214BF70
:103E00004FF080444FF04044002E08BF0024BEF124
:103E1000806FA8BFA1F1C041BDE8704080F28280F0
:103E20004FF0000001F1C04101F0004170479EEAEF
:103E30000C0F0CEA131518BF95EA0C0F06D04FF0C3
:103E4000000081EA030E0EF0004170BD00F01CF886
:103E50008900013E00F007B800F009B84FEA430CB2
:103E60005FEA5C5C08D081EA030100F05BB84FEACE
:103E7000410C5FEA5C5CF6D14FF0000001497047ED
:103E80000000FF070000F87F0EF1020E2EF0030E77
:103E90005EF8046B364205D4012A43EB030515F5A1
:103EA000001F12D8012841EB010C1CF5001F0CD893
:103EB0000ED14FEAD17C15F5001F0CEB4C0C0CF128
:103EC000020C08BF4CEBD37C04E04FF0080C01E07F
:103ED0004FEAD37C0CEB4C0526FA05F606F00706F4
:103EE000B6F1040C06D20EEB860CBDE870404CF027
:103EF000010C6047DFE80CF0090B02024FF00041B3
:103F00004FF00000A1F5002170BD194610460128B0
:103F100051EB010418BFD4F5001484BF002001F058
:103F2000004170BD0808A0F500114FEA310170474B
:103F300053EA010C17D41CF5801F58BFBCF5801F35
:103F400000F106808B4218BF704708BF824270475D
:103F500007D713F5801F58BF11F5801F19D48B4266
:103F600070479B4270471CF5801F08D5BCF5801F29
:103F7000F7D5994218BF704708BF904270474FF479
:103F8000001C1CEB430F38BF1CEB410F01D29942C0
:103F900070470FB40CBC03BCFFF7C1BE10B591EA6B
:103FA000030F48BF83F000433FF56CAC841A71EBFC
:103FB000030C07D212198CF0004C43EB0C03001BCE
:103FC00061EB0C01DFF8A4E14FEA1154A4EB135CA0
:103FD0001EEA430F18BF9EEA445F00F0B08023EA58
:103FE0006E03524221EA0451C3EB6E0338BF5B1EDD
:103FF000DCF1200E25D322FA0CFE10EB0E0043FA62
:104000000CFE41EB0E01CCF1200E03FA0EFE10EB7C
:104010000E0051F10001CCF1200E29D412FA0EF25B
:1040200001EB0451BDE8104058BF7047401C1CBF55
:10403000B2F1004F704700280CBF491C20F001006E
:10404000704712EB020E43EB030218BF4FF0010E54
:104050004EEA4202ACF1200CDCF11E0E54D943FAB8
:104060000CFE10EB0E0051F1FF31CCF11E0ED5D538
:104070000EF1010E12FA0EFE404141EB010101EB7F
:10408000445C5FEA5C5C10D910EBDE7001EB04511C
:1040900038BFBEF1004FBDE8104018BF7047002880
:1040A0000CBF491C20F00100704730D24FEAD42CDD
:1040B00011F5001124F400641BD0B1FA81F20B3A1F
:1040C000A41AA41ED2F12003914030FA03F319433D
:1040D000904001EBCC71002C01EB0451BDE8104085
:1040E000A8BF704701F1C0414FF0000001F000414E
:1040F0007047B0FA80F310FA03F100D110BDE41A52
:10410000173C4805C90AE4E701EB045110BD49100A
:1041100001EB0451BDE810404FEA300002E04FF0DF
:10412000000170474A0008BF0042F8D0B2F5001FF6
:1041300028BF704701F000414FF0000070479EEA31
:10414000445F07D011EA5E0FBDE8104004BF0021B4
:1041500000207047BDE8104070B5FFF795FE00BF26
:1041600040DFF63E83F00041104670470000E0FF5C
:1041700043004FEAD30C4FEA3C0C43401FBF4007BB
:104180000CF1605113F0FE4F70471CF0006F03D12B
:1041900000200CF0004170470CF0004343EA5070DF
:1041A00010B540EACC0000F0E2F900BF0000009238
:1041B0004FEA0001FFF7B6BE4FF000414FF000009C
:1041C000A1F500217047401058BFC0F14040491090
:1041D00058BFC1F140418142EFF3008070470000B9
:1041E0004FF47F0C1CEAD0121EBF1CEAD11392EAD6
:1041F0000C0F93EA0C0F00F0858090EA010F48BF86
:1042000042F4807240F4000C41F400002CF07F4135
:1042100020F07F4000B58142A2EB03020FF2081CA0
:10422000ACEB504EC0F100009EF800E04FEA4E0E9D
:1042300000FB0EFC38BF49004FEA2C1C02F5FA02C5
:104240000CFB0EF34FEACE1E4FEA112C4FEAC121B0
:104250000EEB635E42EB22420EFB0CFC4FEA1C535A
:1042600000FB03114FEA112C4FEA01310EFB0CFC4D
:104270004FEADC4C00FB0C11C14228BF09184CEB83
:1042800003335DF804EB10EB410143EBC250B2F590
:104290007C0F38BF704729D512F0F00F1CBF00F11A
:1042A000C04000F00040704700818283848586878B
:1042B00088898B8C8D8E8F919293959697999A9CE5
:1042C0009D9FA0A2A3A5A7A8AAACAEB0B2B3B5B754
:1042D000B9BCBEC0C2C5C7C9CCCED1D4D7D9DCDF2A
:1042E000E2E6E9ECF0F3F7FAFE0000004FEA400CDA
:1042F0000CF1807CBCF17E4F28BF7047B0F1C0400C
:1043000000F07BB990EA010F0CEAD11348BF42F4E8
:104310008072624538BF634507D213F47F0F16D011
:1043200080EA010000F00040704710B500F01FF96E
:10433000097EFC3E00F005B880EA010000F0004074
:10434000704780EA010000F0004000F056B912F416
:104350007F0F04BF0248704780EA010000F04DB9AA
:104360000000C07F41000B0ED3F19E0208D950F42B
:1043700000034FEA032323FA02F048BF404270478C
:1043800010B500F0F4F800BF499224800020704777
:104390006FF0004282EA200070470000C10DD1F1A9
:1043A0009E0206DB4FEA002343F0004323FA02F0AB
:1043B0007047004207D54FEA4001B1F1FE4F02D2EB
:1043C0004FF00000704710B500F0D1F849922480FA
:1043D000002070476FEA200070470000B0FA80F3B9
:1043E00010FA03F2C3F19D030AD0D90501EB1220A4
:1043F000530638BF704700F1010008BF20F00100EC
:104400007047000050EA010C00F113801CF5000F0A
:1044100058BFBCF5000F01D48842704707D710F58C
:10442000000F58BF11F5000F15D48842704789421C
:1044300070471CF5000F04D5BCF5000FF7D581427D
:1044400070474FF0807C1CEB400F38BF1CEB410FD6
:1044500001D28142704710B500F089F892244900DA
:104460004FF000504FF08051FFF7ADBE4FF47F0C7E
:104470001CEAD0121EBF1CEAD11392EA0C0F93EA79
:104480000C0F00F0478090EA010F48BF42F48072A1
:104490004FF0004C4CEA00204CEA012102EB0302F1
:1044A000A0FB0113A2F50002002918BF43F001038D
:1044B0005B0028BF4FEA330342EB22425FEA132C32
:1044C0004CEBC2502EBFBCEB436FB2F57C0F704774
:1044D0004FEA036CBCF1004F08BF20F00100B2F5B9
:1044E0007C0F38BF70470BD582F0FF0212F5803F7A
:1044F000C8BF704700F1C040D8BF00F0004070470F
:1045000000F5000C5FEA4C0C48BF7047B0F1C040AA
:1045100000F073B890EA010F0CEAD11348BF42F4DF
:104520008072624538BF634504D280EA010000F022
:104530000040704710B500F01AF800BF8900013E36
:1045400000F007B800F009B85FEA410C5FEA1C6CA4
:1045500008D080EA010000F050B85FEA400C5FEA42
:104560001C6CF6D14FF00040A0F5800070470EF1B2
:10457000020E2EF0030E5EF8044B244204D44FEAE0
:104580004102B2F17F4F11D84FEA4003B3F17F4FA0
:104590000CD80ED14FEAD07CB2F17F4F0CEB4C0C13
:1045A0000CF1020C08BF4CEBD17C04E04FF0080C7E
:1045B00001E04FEAD17C0CEB4C0324FA03F404F045
:1045C0000704B4F1040C06D20EEB840CBDE81040D5
:1045D0004CF0010C6047DFE80CF0070802024FF0D6
:1045E0000040A0F5800010BD0846420018BFD2F17F
:1045F000807288BF00F0004010BDFF2141EAD0501A
:10460000C005704751EA000C00F113801CF5000F43
:1046100058BFBCF5000F01D48142704707D711F590
:10462000000F58BF10F5000F15D481427047894222
:1046300070471CF5000F04D5BCF5000FF7D5884274
:1046400070474FF0807C1CEB410F38BF1CEB400FD4
:1046500001D28842704780EA010081EA000180EAC5
:104660000100FFF7F8BEFCF77DB800000000000075
:104670000000002F000000000700070000147F1456
:104680007F1400242A7F2A12006264081323003654
:104690004955225000000503000000001C22410083
:1046A000000041221C000014083E08140008083EC7
:1046B0000808000000A060000008080808080000C2
:1046C00060600000002010080402003E5149453E91
:1046D0000000427F400000426151494600214145AF
:1046E0004B31001814127F10002745454539003C16
:1046F0004A494930000171090503003649494936E4
:1047000000064949291E00003636000000005636D2
:1047100000000008142241000014141414140000B6
:104720004122140800020151090600324959513E44
:10473000007C1211127C007F49494936003E4141FC
:104740004122007F4141221C007F49494941007FAD
:1047500009090901003E4149497A007F0808087F9C
:104760000000417F4100002040413F01007F0814CC
:104770002241007F40404040007F020C027F007FCA
:104780000408107F003E4141413E007F09090906AF
:10479000003E4151215E007F0919294600464949E2
:1047A00049310001017F0101003F4040403F001FAF
:1047B0002040201F003F4038403F0063140814632E
:1047C00000070870080700615149454300007F4118
:1047D000410000552A552A55000041417F00000440
:1047E0000201020400404040404000000102040079
:1047F000002054545478007F4844443800384444DE
:10480000442000384444487F003854545418000869
:104810007E0901020018A4A4A47C007F0804047887
:104820000000447D4000004080847D00007F10280F
:1048300044000000417F4000007C04180478007CA4
:104840000804047800384444443800FC2424241824
:104850000018242418FC007C080404080048545460
:10486000542000043F444020003C4040207C001C79
:104870002040201C003C4030403C0044281028448C
:10488000001CA0A0A07C004464544C4414141414D4
:1048900014140000000000000000000000000000F0
:1048A0000000000000F800000000000000333000AD
:1048B000000000100C06100C0600000000000000B4
:1048C000000040C07840C0784000043F04043F042A
:1048D0000400007088FC08300000001820FF211E32
:1048E0000000F008F000E018000000211C031E2169
:1048F0001E0000F00888700000001E2123241927E4
:10490000211010160E000000000000000000000042
:104910000000000000E0180402000000000718205A
:10492000400000020418E0000000004020180700CA
:104930000000404080F0804040000202010F010270
:104940000200000000F0000000000101011F010151
:104950000100000000000000000080B070000000B6
:104960000000000000000000000000010101010142
:1049700001010000000000000000003030000000D5
:1049800000000000000080601804006018060100AC
:10499000000000E010080810E000000F10202010B8
:1049A0000F00001010F8000000000020203F202021
:1049B00000000070080808887000003028242221B8
:1049C000300000300888884830000018202020116E
:1049D0000E000000C02010F8000000070424243F4F
:1049E000240000F8088888080800001921202011F8
:1049F0000E0000E0108888180000000F1120201120
:104A00000E0000380808C83808000000003F000009
:104A100000000070880808887000001C22212122F4
:104A20001C0000E010080810E000000031222211F4
:104A30000F00000000C0C000000000000030300087
:104A40000000000000800000000000008060000006
:104A5000000000008040201008000001020408103F
:104A6000200040404040404040000404040404044E
:104A700004000008102040800000002010080402FC
:104A80000100007048080808F000000000303601FE
:104A90000000C030C828E810E000071827242314BD
:104AA0000B000000C038E0000000203C2302022779
:104AB000382008F8888888700000203F20202011C6
:104AC0000E00C03008080808380007182020201001
:104AD000080008F808080810E000203F20202010F7
:104AE0000F0008F88888E8081000203F20202320C5
:104AF000180008F88888E8081000203F200003000C
:104B00000000C03008080838000007182020221EC6
:104B1000020008F808000008F808203F21010121E0
:104B20003F20000808F8080800000020203F20204F
:104B3000000000000808F8080800C08080807F009E
:104B4000000008F888C028180800203F20012638F7
:104B5000200008F8080000000000203F202020204E
:104B6000300008F8F800F8F80800203F003F003F48
:104B7000200008F830C00008F808203F200007187F
:104B80003F00E01008080810E0000F10202020105F
:104B90000F0008F808080808F000203F2101010173
:104BA0000000E01008080810E0000F182424385016
:104BB0004F0008F8888888887000203F2000030C88
:104BC0003020007088080808380000382021212291
:104BD0001C00180808F8080818000000203F2000F2
:104BE000000008F808000008F808001F2020202016
:104BF0001F000878880000C83808000007380E0138
:104C00000000F80800F80008F800033C0700073C23
:104C10000300081868808068180820302C03032CD3
:104C200030200838C800C83808000000203F2000A5
:104C3000000010080808C838080020382621202065
:104C40001800000000FE020202000000007F404049
:104C50004000000C30C000000000000000010638D9
:104C6000C00000020202FE000000004040407F0041
:104C70000000000004020202040000000000000026
:104C80000000000000000000000080808080808024
:104C9000808000020204000000000000000000000C
:104CA0000000000080808080000000192422222261
:104CB0003F2008F8008080000000003F11202011F4
:104CC0000E000000008080800000000E11202020D7
:104CD0001100000000808088F800000E11202010D4
:104CE0003F200000808080800000001F22222222BE
:104CF0001300008080F0888888180020203F202042
:104D000000000000808080808000006B9494949369
:104D1000600008F8008080800000203F2100002013
:104D20003F2000809898000000000020203F2020B5
:104D30000000000000809898000000C08080807F04
:104D4000000008F8000080808000203F24022D3001
:104D50002000000808F8000000000020203F20206C
:104D600000008080808080808000203F20003F20E5
:104D7000003F8080008080800000203F21000020D4
:104D80003F200000808080800000001F2020202025
:104D90001F00808000808000000080FFA120201183
:104DA0000E000000008080808000000E112020A0F6
:104DB000FF80808080008080800020203F212000B4
:104DC000010000008080808080000033242424249F
:104DD0001900008080E0808000000000001F20207B
:104DE00000008080000000808000001F2020201034
:104DF0003F20808080000080808000010E30080607
:104E0000010080800080008080800F300C030C3017
:104E10000F0000808000808080000020312E0E3145
:104E20002000808080000080808080818E70180645
:104E3000010000808080808080000021302C2221B1
:104E4000300000000000807C020200000000003FF3
:104E5000404000000000FF00000000000000FF00D4
:104E600000000002027C800000000040403F000083
:104E7000000000060101020204040000000000001E
:104E80000000040000080000000000000002000113
:104E90000000100002400000000000A00000000020
:104EA00005400000000000C8000000000C400000A9
:104EB0000000409C00000000194000000020BCBE23
:104EC0000000000034400000BFC91B8E0000000439
:104ED000B5400000504BCFD06607E2CF0100000084
:104EE0006C4100003E8251AADFEEA73401000000B1
:104EF000D9420000DCB5A0E23A301F97FFFFFFFF68
:104F0000B4450000FD25A0C8E9A3C14FFFFFFFFF86
:104F1000FF3F00000000008000000000FF3F000095
:104F20000000008000000000644F00080000002026
:104F3000A40100002801000858500008A401002026
:104F40001C070000840100081C0000004300000052
:104F5000F8FFFFFF0C0000000E0000000F00000033
:104F60002E000000412D0102030404200D06070855
:104F700009020406081060028C2BFE920132FE1812
:104F80000A04047E01407E42427E0234427E402872
:104F900009FC242424FC2526240812041010403087
:104FA0008F80844C55252525554C80808039401EA6
:104FB000F8080808FF044AF840080C1F2063212164
:104FC000213F2121293360403A02012EFE02024294
:104FD0008209713AFFAB42069DFE225A86A0111546
:104FE000FF0408072809FF4020030C142241A039C0
:104FF000153A40013149094A7F072912091D401518
:10500000404042CC400B40A09E8282829EA0202045
:10501000180B3F908840432C10284641A0111808D7
:105020001715D55557557D043CD51517604B7F5541
:1050300001296531222842A0390511632C01252C54
:105040000184031AE8043184A24A04000918010209
:08505000030406070809000033
:04000005080000ED02
:00000001FF
